{
  "_format": "hh-sol-artifact-1",
  "contractName": "MyEpicNFT",
  "sourceName": "contracts/MyEpicNFT.sol",
  "abi": [
    {
      "inputs": [],
      "stateMutability": "nonpayable",
      "type": "constructor"
    },
    {
      "anonymous": false,
      "inputs": [
        {
          "indexed": true,
          "internalType": "address",
          "name": "owner",
          "type": "address"
        },
        {
          "indexed": true,
          "internalType": "address",
          "name": "approved",
          "type": "address"
        },
        {
          "indexed": true,
          "internalType": "uint256",
          "name": "tokenId",
          "type": "uint256"
        }
      ],
      "name": "Approval",
      "type": "event"
    },
    {
      "anonymous": false,
      "inputs": [
        {
          "indexed": true,
          "internalType": "address",
          "name": "owner",
          "type": "address"
        },
        {
          "indexed": true,
          "internalType": "address",
          "name": "operator",
          "type": "address"
        },
        {
          "indexed": false,
          "internalType": "bool",
          "name": "approved",
          "type": "bool"
        }
      ],
      "name": "ApprovalForAll",
      "type": "event"
    },
    {
      "anonymous": false,
      "inputs": [
        {
          "indexed": false,
          "internalType": "address",
          "name": "sender",
          "type": "address"
        },
        {
          "indexed": false,
          "internalType": "uint256",
          "name": "tokenId",
          "type": "uint256"
        }
      ],
      "name": "NewEpicNFTMinted",
      "type": "event"
    },
    {
      "anonymous": false,
      "inputs": [
        {
          "indexed": true,
          "internalType": "address",
          "name": "from",
          "type": "address"
        },
        {
          "indexed": true,
          "internalType": "address",
          "name": "to",
          "type": "address"
        },
        {
          "indexed": true,
          "internalType": "uint256",
          "name": "tokenId",
          "type": "uint256"
        }
      ],
      "name": "Transfer",
      "type": "event"
    },
    {
      "inputs": [
        {
          "internalType": "address",
          "name": "to",
          "type": "address"
        },
        {
          "internalType": "uint256",
          "name": "tokenId",
          "type": "uint256"
        }
      ],
      "name": "approve",
      "outputs": [],
      "stateMutability": "nonpayable",
      "type": "function"
    },
    {
      "inputs": [
        {
          "internalType": "address",
          "name": "owner",
          "type": "address"
        }
      ],
      "name": "balanceOf",
      "outputs": [
        {
          "internalType": "uint256",
          "name": "",
          "type": "uint256"
        }
      ],
      "stateMutability": "view",
      "type": "function"
    },
    {
      "inputs": [],
      "name": "currentNumber",
      "outputs": [
        {
          "internalType": "uint256",
          "name": "",
          "type": "uint256"
        }
      ],
      "stateMutability": "view",
      "type": "function"
    },
    {
      "inputs": [
        {
          "internalType": "uint256",
          "name": "tokenId",
          "type": "uint256"
        }
      ],
      "name": "getApproved",
      "outputs": [
        {
          "internalType": "address",
          "name": "",
          "type": "address"
        }
      ],
      "stateMutability": "view",
      "type": "function"
    },
    {
      "inputs": [
        {
          "internalType": "address",
          "name": "owner",
          "type": "address"
        },
        {
          "internalType": "address",
          "name": "operator",
          "type": "address"
        }
      ],
      "name": "isApprovedForAll",
      "outputs": [
        {
          "internalType": "bool",
          "name": "",
          "type": "bool"
        }
      ],
      "stateMutability": "view",
      "type": "function"
    },
    {
      "inputs": [],
      "name": "makeAnEpicNFT",
      "outputs": [],
      "stateMutability": "nonpayable",
      "type": "function"
    },
    {
      "inputs": [],
      "name": "name",
      "outputs": [
        {
          "internalType": "string",
          "name": "",
          "type": "string"
        }
      ],
      "stateMutability": "view",
      "type": "function"
    },
    {
      "inputs": [
        {
          "internalType": "uint256",
          "name": "tokenId",
          "type": "uint256"
        }
      ],
      "name": "ownerOf",
      "outputs": [
        {
          "internalType": "address",
          "name": "",
          "type": "address"
        }
      ],
      "stateMutability": "view",
      "type": "function"
    },
    {
      "inputs": [
        {
          "internalType": "uint256",
          "name": "tokenId",
          "type": "uint256"
        }
      ],
      "name": "pickRandomColor",
      "outputs": [
        {
          "internalType": "string",
          "name": "",
          "type": "string"
        }
      ],
      "stateMutability": "view",
      "type": "function"
    },
    {
      "inputs": [
        {
          "internalType": "uint256",
          "name": "tokenId",
          "type": "uint256"
        }
      ],
      "name": "pickRandomFirstWord",
      "outputs": [
        {
          "internalType": "string",
          "name": "",
          "type": "string"
        }
      ],
      "stateMutability": "view",
      "type": "function"
    },
    {
      "inputs": [
        {
          "internalType": "uint256",
          "name": "tokenId",
          "type": "uint256"
        }
      ],
      "name": "pickRandomSecondWord",
      "outputs": [
        {
          "internalType": "string",
          "name": "",
          "type": "string"
        }
      ],
      "stateMutability": "view",
      "type": "function"
    },
    {
      "inputs": [
        {
          "internalType": "uint256",
          "name": "tokenId",
          "type": "uint256"
        }
      ],
      "name": "pickRandomThirdWord",
      "outputs": [
        {
          "internalType": "string",
          "name": "",
          "type": "string"
        }
      ],
      "stateMutability": "view",
      "type": "function"
    },
    {
      "inputs": [
        {
          "internalType": "address",
          "name": "from",
          "type": "address"
        },
        {
          "internalType": "address",
          "name": "to",
          "type": "address"
        },
        {
          "internalType": "uint256",
          "name": "tokenId",
          "type": "uint256"
        }
      ],
      "name": "safeTransferFrom",
      "outputs": [],
      "stateMutability": "nonpayable",
      "type": "function"
    },
    {
      "inputs": [
        {
          "internalType": "address",
          "name": "from",
          "type": "address"
        },
        {
          "internalType": "address",
          "name": "to",
          "type": "address"
        },
        {
          "internalType": "uint256",
          "name": "tokenId",
          "type": "uint256"
        },
        {
          "internalType": "bytes",
          "name": "_data",
          "type": "bytes"
        }
      ],
      "name": "safeTransferFrom",
      "outputs": [],
      "stateMutability": "nonpayable",
      "type": "function"
    },
    {
      "inputs": [
        {
          "internalType": "address",
          "name": "operator",
          "type": "address"
        },
        {
          "internalType": "bool",
          "name": "approved",
          "type": "bool"
        }
      ],
      "name": "setApprovalForAll",
      "outputs": [],
      "stateMutability": "nonpayable",
      "type": "function"
    },
    {
      "inputs": [
        {
          "internalType": "bytes4",
          "name": "interfaceId",
          "type": "bytes4"
        }
      ],
      "name": "supportsInterface",
      "outputs": [
        {
          "internalType": "bool",
          "name": "",
          "type": "bool"
        }
      ],
      "stateMutability": "view",
      "type": "function"
    },
    {
      "inputs": [],
      "name": "symbol",
      "outputs": [
        {
          "internalType": "string",
          "name": "",
          "type": "string"
        }
      ],
      "stateMutability": "view",
      "type": "function"
    },
    {
      "inputs": [
        {
          "internalType": "uint256",
          "name": "tokenId",
          "type": "uint256"
        }
      ],
      "name": "tokenURI",
      "outputs": [
        {
          "internalType": "string",
          "name": "",
          "type": "string"
        }
      ],
      "stateMutability": "view",
      "type": "function"
    },
    {
      "inputs": [],
      "name": "totalNumber",
      "outputs": [
        {
          "internalType": "uint256",
          "name": "",
          "type": "uint256"
        }
      ],
      "stateMutability": "view",
      "type": "function"
    },
    {
      "inputs": [
        {
          "internalType": "address",
          "name": "from",
          "type": "address"
        },
        {
          "internalType": "address",
          "name": "to",
          "type": "address"
        },
        {
          "internalType": "uint256",
          "name": "tokenId",
          "type": "uint256"
        }
      ],
      "name": "transferFrom",
      "outputs": [],
      "stateMutability": "nonpayable",
      "type": "function"
    }
  ],
  "bytecode": "0x60806040526032600855600060095560405180610100016040528060d381526020016200905a60d39139600a90805190602001906200004092919062004fac565b506040518060800160405280605681526020016200912d60569139600b90805190602001906200007292919062004fac565b50604051806125c001604052806040518060400160405280600481526020017f4c494e410000000000000000000000000000000000000000000000000000000081525081526020016040518060400160405280600481526020017f54524f590000000000000000000000000000000000000000000000000000000081525081526020016040518060400160405280600481526020017f424541520000000000000000000000000000000000000000000000000000000081525081526020016040518060400160405280600381526020017f464953000000000000000000000000000000000000000000000000000000000081525081526020016040518060400160405280600381526020017f474e4f000000000000000000000000000000000000000000000000000000000081525081526020016040518060400160405280600481526020017f574158500000000000000000000000000000000000000000000000000000000081525081526020016040518060400160405280600281526020017f4f4700000000000000000000000000000000000000000000000000000000000081525081526020016040518060400160405280600481526020017f444154410000000000000000000000000000000000000000000000000000000081525081526020016040518060400160405280600581526020017f53544f524a00000000000000000000000000000000000000000000000000000081525081526020016040518060400160405280600381526020017f4d4c4e000000000000000000000000000000000000000000000000000000000081525081526020016040518060400160405280600381526020017f534b4c000000000000000000000000000000000000000000000000000000000081525081526020016040518060400160405280600381526020017f4d4458000000000000000000000000000000000000000000000000000000000081525081526020016040518060400160405280600381526020017f434852000000000000000000000000000000000000000000000000000000000081525081526020016040518060400160405280600581526020017f515549434b00000000000000000000000000000000000000000000000000000081525081526020016040518060400160405280600381526020017f455244000000000000000000000000000000000000000000000000000000000081525081526020016040518060400160405280600381526020017f424e42000000000000000000000000000000000000000000000000000000000081525081526020016040518060400160405280600381526020017f455552000000000000000000000000000000000000000000000000000000000081525081526020016040518060400160405280600481526020017f41544f4d0000000000000000000000000000000000000000000000000000000081525081526020016040518060400160405280600381526020017f444352000000000000000000000000000000000000000000000000000000000081525081526020016040518060400160405280600381526020017f4d544c000000000000000000000000000000000000000000000000000000000081525081526020016040518060400160405280600781526020017f58525042554c4c0000000000000000000000000000000000000000000000000081525081526020016040518060400160405280600381526020017f435256000000000000000000000000000000000000000000000000000000000081525081526020016040518060400160405280600481526020017f4155544f0000000000000000000000000000000000000000000000000000000081525081526020016040518060400160405280600381526020017f554e49000000000000000000000000000000000000000000000000000000000081525081526020016040518060400160405280600481526020017f545553440000000000000000000000000000000000000000000000000000000081525081526020016040518060400160405280600381526020017f43485a000000000000000000000000000000000000000000000000000000000081525081526020016040518060400160405280600481526020017f57494e470000000000000000000000000000000000000000000000000000000081525081526020016040518060400160405280600381526020017f544c4d000000000000000000000000000000000000000000000000000000000081525081526020016040518060400160405280600381526020017f415441000000000000000000000000000000000000000000000000000000000081525081526020016040518060400160405280600381526020017f534c50000000000000000000000000000000000000000000000000000000000081525081526020016040518060400160405280600381526020017f4b534d000000000000000000000000000000000000000000000000000000000081525081526020016040518060400160405280600481526020017f44454e540000000000000000000000000000000000000000000000000000000081525081526020016040518060400160405280600281526020017f444600000000000000000000000000000000000000000000000000000000000081525081526020016040518060400160405280600381526020017f53524d000000000000000000000000000000000000000000000000000000000081525081526020016040518060400160405280600381526020017f524550000000000000000000000000000000000000000000000000000000000081525081526020016040518060400160405280600481526020017f535450540000000000000000000000000000000000000000000000000000000081525081526020016040518060400160405280600381526020017f434658000000000000000000000000000000000000000000000000000000000081525081526020016040518060400160405280600381526020017f554d41000000000000000000000000000000000000000000000000000000000081525081526020016040518060400160405280600381526020017f43544b000000000000000000000000000000000000000000000000000000000081525081526020016040518060400160405280600481526020017f414b524f0000000000000000000000000000000000000000000000000000000081525081526020016040518060400160405280600381526020017f464f52000000000000000000000000000000000000000000000000000000000081525081526020016040518060400160405280600481526020017f4e4541520000000000000000000000000000000000000000000000000000000081525081526020016040518060400160405280600481526020017f42554c4c0000000000000000000000000000000000000000000000000000000081525081526020016040518060400160405280600381526020017f444742000000000000000000000000000000000000000000000000000000000081525081526020016040518060400160405280600781526020017f424e4242554c4c0000000000000000000000000000000000000000000000000081525081526020016040518060400160405280600381526020017f454f53000000000000000000000000000000000000000000000000000000000081525081526020016040518060400160405280600381526020017f415544000000000000000000000000000000000000000000000000000000000081525081526020016040518060400160405280600381526020017f575443000000000000000000000000000000000000000000000000000000000081525081526020016040518060400160405280600481526020017f4d494e410000000000000000000000000000000000000000000000000000000081525081526020016040518060400160405280600381526020017f594649000000000000000000000000000000000000000000000000000000000081525081526020016040518060400160405280600281526020017f4f4d00000000000000000000000000000000000000000000000000000000000081525081526020016040518060400160405280600481526020017f484956450000000000000000000000000000000000000000000000000000000081525081526020016040518060400160405280600381526020017f545258000000000000000000000000000000000000000000000000000000000081525081526020016040518060400160405280600481526020017f42414e440000000000000000000000000000000000000000000000000000000081525081526020016040518060400160405280600381526020017f4e4253000000000000000000000000000000000000000000000000000000000081525081526020016040518060400160405280600481526020017f414156450000000000000000000000000000000000000000000000000000000081525081526020016040518060400160405280600481526020017f435458430000000000000000000000000000000000000000000000000000000081525081526020016040518060400160405280600381526020017f545242000000000000000000000000000000000000000000000000000000000081525081526020016040518060400160405280600381526020017f425447000000000000000000000000000000000000000000000000000000000081525081526020016040518060400160405280600281526020017f415200000000000000000000000000000000000000000000000000000000000081525081526020016040518060400160405280600381526020017f58454d000000000000000000000000000000000000000000000000000000000081525081526020016040518060400160405280600381526020017f585250000000000000000000000000000000000000000000000000000000000081525081526020016040518060400160405280600381526020017f524159000000000000000000000000000000000000000000000000000000000081525081526020016040518060400160405280600581526020017f464f52544800000000000000000000000000000000000000000000000000000081525081526020016040518060400160405280600381526020017f4c544f000000000000000000000000000000000000000000000000000000000081525081526020016040518060400160405280600581526020017f414c49434500000000000000000000000000000000000000000000000000000081525081526020016040518060400160405280600481526020017f45474c440000000000000000000000000000000000000000000000000000000081525081526020016040518060400160405280600481526020017f494f54580000000000000000000000000000000000000000000000000000000081525081526020016040518060400160405280600381526020017f455053000000000000000000000000000000000000000000000000000000000081525081526020016040518060400160405280600381526020017f544b4f000000000000000000000000000000000000000000000000000000000081525081526020016040518060400160405280600381526020017f455443000000000000000000000000000000000000000000000000000000000081525081526020016040518060400160405280600381526020017f425454000000000000000000000000000000000000000000000000000000000081525081526020016040518060400160405280600381526020017f494358000000000000000000000000000000000000000000000000000000000081525081526020016040518060400160405280600381526020017f46544d000000000000000000000000000000000000000000000000000000000081525081526020016040518060400160405280600481526020017f425a52580000000000000000000000000000000000000000000000000000000081525081526020016040518060400160405280600581526020017f53544f524d00000000000000000000000000000000000000000000000000000081525081526020016040518060400160405280600381526020017f4d4952000000000000000000000000000000000000000000000000000000000081525081526020016040518060400160405280600381526020017f424154000000000000000000000000000000000000000000000000000000000081525081526020016040518060400160405280600481526020017f424f4e440000000000000000000000000000000000000000000000000000000081525081526020016040518060400160405280600481526020017f444153480000000000000000000000000000000000000000000000000000000081525081526020016040518060400160405280600481526020017f524545460000000000000000000000000000000000000000000000000000000081525081526020016040518060400160405280600481526020017f574e584d0000000000000000000000000000000000000000000000000000000081525081526020016040518060400160405280600481526020017f434f4d500000000000000000000000000000000000000000000000000000000081525081526020016040518060400160405280600381526020017f424348000000000000000000000000000000000000000000000000000000000081525081526020016040518060400160405280600381526020017f564554000000000000000000000000000000000000000000000000000000000081525081526020016040518060400160405280600481526020017f444f434b0000000000000000000000000000000000000000000000000000000081525081526020016040518060400160405280600481526020017f52554e450000000000000000000000000000000000000000000000000000000081525081526020016040518060400160405280600481526020017f504158470000000000000000000000000000000000000000000000000000000081525081526020016040518060400160405280600481526020017f4b4156410000000000000000000000000000000000000000000000000000000081525081526020016040518060400160405280600381526020017f504e54000000000000000000000000000000000000000000000000000000000081525081526020016040518060400160405280600481526020017f554e46490000000000000000000000000000000000000000000000000000000081525081526020016040518060400160405280600681526020017f425552474552000000000000000000000000000000000000000000000000000081525081526020016040518060400160405280600381526020017f534650000000000000000000000000000000000000000000000000000000000081525081526020016040518060400160405280600381526020017f414441000000000000000000000000000000000000000000000000000000000081525081526020016040518060400160405280600381526020017f464c4d000000000000000000000000000000000000000000000000000000000081525081526020016040518060400160405280600481526020017f544f524e0000000000000000000000000000000000000000000000000000000081525081526020016040518060400160405280600481526020017f535553440000000000000000000000000000000000000000000000000000000081525081526020016040518060400160405280600381526020017f433938000000000000000000000000000000000000000000000000000000000081525081526020016040518060400160405280600381526020017f5a454e000000000000000000000000000000000000000000000000000000000081525081526020016040518060400160405280600481526020017f42414b450000000000000000000000000000000000000000000000000000000081525081526020016040518060400160405280600481526020017f464c4f570000000000000000000000000000000000000000000000000000000081525081526020016040518060400160405280600581526020017f424348535600000000000000000000000000000000000000000000000000000081525081526020016040518060400160405280600381526020017f534e58000000000000000000000000000000000000000000000000000000000081525081526020016040518060400160405280600381526020017f45524e000000000000000000000000000000000000000000000000000000000081525081526020016040518060400160405280600781526020017f585250424541520000000000000000000000000000000000000000000000000081525081526020016040518060400160405280600581526020017f544845544100000000000000000000000000000000000000000000000000000081525081526020016040518060400160405280600481526020017f4c454e440000000000000000000000000000000000000000000000000000000081525081526020016040518060400160405280600581526020017f545249424500000000000000000000000000000000000000000000000000000081525081526020016040518060400160405280600481526020017f4d4954480000000000000000000000000000000000000000000000000000000081525081526020016040518060400160405280600381526020017f575258000000000000000000000000000000000000000000000000000000000081525081526020016040518060400160405280600481526020017f4c554e410000000000000000000000000000000000000000000000000000000081525081526020016040518060400160405280600381526020017f4d434f000000000000000000000000000000000000000000000000000000000081525081526020016040518060400160405280600481526020017f41474c440000000000000000000000000000000000000000000000000000000081525081526020016040518060400160405280600381526020017f4c5443000000000000000000000000000000000000000000000000000000000081525081526020016040518060400160405280600581526020017f574156455300000000000000000000000000000000000000000000000000000081525081526020016040518060400160405280600581526020017f414c50484100000000000000000000000000000000000000000000000000000081525081526020016040518060400160405280600381526020017f54564b000000000000000000000000000000000000000000000000000000000081525081526020016040518060400160405280600381526020017f4b4559000000000000000000000000000000000000000000000000000000000081525081526020016040518060400160405280600481526020017f484241520000000000000000000000000000000000000000000000000000000081525081526020016040518060400160405280600381526020017f415853000000000000000000000000000000000000000000000000000000000081525081526020016040518060400160405280600381526020017f444e54000000000000000000000000000000000000000000000000000000000081525081526020016040518060400160405280600781526020017f45544842554c4c0000000000000000000000000000000000000000000000000081525081526020016040518060400160405280600681526020017f424144474552000000000000000000000000000000000000000000000000000081525081526020016040518060400160405280600481526020017f435453490000000000000000000000000000000000000000000000000000000081525081526020016040518060400160405280600481526020017f4455534b0000000000000000000000000000000000000000000000000000000081525081526020016040518060400160405280600381526020017f56454e000000000000000000000000000000000000000000000000000000000081525081526020016040518060400160405280600381526020017f475254000000000000000000000000000000000000000000000000000000000081525081526020016040518060400160405280600581526020017f535550455200000000000000000000000000000000000000000000000000000081525081526020016040518060400160405280600381526020017f494350000000000000000000000000000000000000000000000000000000000081525081526020016040518060400160405280600681526020017f50554e444958000000000000000000000000000000000000000000000000000081525081526020016040518060400160405280600381526020017f505347000000000000000000000000000000000000000000000000000000000081525081526020016040518060400160405280600781526020017f454f5342554c4c0000000000000000000000000000000000000000000000000081525081526020016040518060400160405280600381526020017f545754000000000000000000000000000000000000000000000000000000000081525081526020016040518060400160405280600381526020017f47544f000000000000000000000000000000000000000000000000000000000081525081526020016040518060400160405280600381526020017f4f4d47000000000000000000000000000000000000000000000000000000000081525081526020016040518060400160405280600481526020017f544f4d4f0000000000000000000000000000000000000000000000000000000081525081526020016040518060400160405280600481526020017f445245500000000000000000000000000000000000000000000000000000000081525081526020016040518060400160405280600381526020017f535850000000000000000000000000000000000000000000000000000000000081525081526020016040518060400160405280600381526020017f4b4d44000000000000000000000000000000000000000000000000000000000081525081526020016040518060400160405280600481526020017f53414e440000000000000000000000000000000000000000000000000000000081525081526020016040518060400160405280600381526020017f585653000000000000000000000000000000000000000000000000000000000081525081526020016040518060400160405280600381526020017f544354000000000000000000000000000000000000000000000000000000000081525081526020016040518060400160405280600381526020017f4f4e54000000000000000000000000000000000000000000000000000000000081525081526020016040518060400160405280600481526020017f4b4545500000000000000000000000000000000000000000000000000000000081525081526020016040518060400160405280600381526020017f504841000000000000000000000000000000000000000000000000000000000081525081526020016040518060400160405280600481526020017f555344430000000000000000000000000000000000000000000000000000000081525081526020016040518060400160405280600381526020017f435643000000000000000000000000000000000000000000000000000000000081525081526020016040518060400160405280600381526020017f4f4e45000000000000000000000000000000000000000000000000000000000081525081526020016040518060400160405280600481526020017f5045524c0000000000000000000000000000000000000000000000000000000081525081526020016040518060400160405280600481526020017f425553440000000000000000000000000000000000000000000000000000000081525081526020016040518060400160405280600481526020017f415244520000000000000000000000000000000000000000000000000000000081525081526020016040518060400160405280600381526020017f42454c000000000000000000000000000000000000000000000000000000000081525081526020016040518060400160405280600481526020017f484152440000000000000000000000000000000000000000000000000000000081525081526020016040518060400160405280600381526020017f434c56000000000000000000000000000000000000000000000000000000000081525081526020016040518060400160405280600481526020017f504f4c590000000000000000000000000000000000000000000000000000000081525081526020016040518060400160405280600481526020017f464944410000000000000000000000000000000000000000000000000000000081525081526020016040518060400160405280600581526020017f544655454c00000000000000000000000000000000000000000000000000000081525081526020016040518060400160405280600381526020017f425443000000000000000000000000000000000000000000000000000000000081525081526020016040518060400160405280600381526020017f52454e000000000000000000000000000000000000000000000000000000000081525081526020016040518060400160405280600381526020017f41544d000000000000000000000000000000000000000000000000000000000081525081526020016040518060400160405280600381526020017f524946000000000000000000000000000000000000000000000000000000000081525081526020016040518060400160405280600381526020017f584d52000000000000000000000000000000000000000000000000000000000081525081526020016040518060400160405280600381526020017f455448000000000000000000000000000000000000000000000000000000000081525081526020016040518060400160405280600381526020017f4a5556000000000000000000000000000000000000000000000000000000000081525081526020016040518060400160405280600481526020017f4641524d0000000000000000000000000000000000000000000000000000000081525081526020016040518060400160405280600581526020017f555344534200000000000000000000000000000000000000000000000000000081525081526020016040518060400160405280600381526020017f4c4954000000000000000000000000000000000000000000000000000000000081525081526020016040518060400160405280600381526020017f504158000000000000000000000000000000000000000000000000000000000081525081526020016040518060400160405280600381526020017f4d424c000000000000000000000000000000000000000000000000000000000081525081526020016040518060400160405280600381526020017f4f474e000000000000000000000000000000000000000000000000000000000081525081526020016040518060400160405280600481526020017f494f54410000000000000000000000000000000000000000000000000000000081525081526020016040518060400160405280600381526020017f4f4e47000000000000000000000000000000000000000000000000000000000081525081526020016040518060400160405280600481526020017f434f54490000000000000000000000000000000000000000000000000000000081525081526020016040518060400160405280600481526020017f415250410000000000000000000000000000000000000000000000000000000081525081526020016040518060400160405280600381526020017f524551000000000000000000000000000000000000000000000000000000000081525081526020016040518060400160405280600381526020017f585647000000000000000000000000000000000000000000000000000000000081525081526020016040518060400160405280600581526020017f425443535400000000000000000000000000000000000000000000000000000081525081526020016040518060400160405280600581526020017f4d4154494300000000000000000000000000000000000000000000000000000081525081526020016040518060400160405280600481526020017f43414b450000000000000000000000000000000000000000000000000000000081525081526020016040518060400160405280600481526020017f414c474f0000000000000000000000000000000000000000000000000000000081525081526020016040518060400160405280600481526020017f424b52570000000000000000000000000000000000000000000000000000000081525081526020016040518060400160405280600481526020017f504f4e440000000000000000000000000000000000000000000000000000000081525081526020016040518060400160405280600481526020017f4d424f580000000000000000000000000000000000000000000000000000000081525081526020016040518060400160405280600581526020017f46524f4e5400000000000000000000000000000000000000000000000000000081525081526020016040518060400160405280600381526020017f475853000000000000000000000000000000000000000000000000000000000081525081526020016040518060400160405280600481526020017f555344500000000000000000000000000000000000000000000000000000000081525081526020016040518060400160405280600381526020017f424343000000000000000000000000000000000000000000000000000000000081525081526020016040518060400160405280600381526020017f454e4a000000000000000000000000000000000000000000000000000000000081525081526020016040518060400160405280600481526020017f4445474f0000000000000000000000000000000000000000000000000000000081525081526020016040518060400160405280600481526020017f504f4c530000000000000000000000000000000000000000000000000000000081525081526020016040518060400160405280600581526020017f535553484900000000000000000000000000000000000000000000000000000081525081526020016040518060400160405280600381526020017f415641000000000000000000000000000000000000000000000000000000000081525081526020016040518060400160405280600481526020017f564954450000000000000000000000000000000000000000000000000000000081525081526020016040518060400160405280600381526020017f584543000000000000000000000000000000000000000000000000000000000081525081526020016040518060400160405280600381526020017f585a43000000000000000000000000000000000000000000000000000000000081525081526020016040518060400160405280600381526020017f435650000000000000000000000000000000000000000000000000000000000081525081526020016040518060400160405280600381526020017f4e454f000000000000000000000000000000000000000000000000000000000081525081526020016040518060400160405280600581526020017f535452415800000000000000000000000000000000000000000000000000000081525081526020016040518060400160405280600381526020017f52564e000000000000000000000000000000000000000000000000000000000081525081526020016040518060400160405280600481526020017f41494f4e0000000000000000000000000000000000000000000000000000000081525081526020016040518060400160405280600481526020017f555344530000000000000000000000000000000000000000000000000000000081525081526020016040518060400160405280600481526020017f4e414e4f0000000000000000000000000000000000000000000000000000000081525081526020016040518060400160405280600381526020017f57494e000000000000000000000000000000000000000000000000000000000081525081526020016040518060400160405280600381526020017f4e4b4e000000000000000000000000000000000000000000000000000000000081525081526020016040518060400160405280600481526020017f4649524f0000000000000000000000000000000000000000000000000000000081525081526020016040518060400160405280600481526020017f474853540000000000000000000000000000000000000000000000000000000081525081526020016040518060400160405280600481526020017f414e4b520000000000000000000000000000000000000000000000000000000081525081526020016040518060400160405280600481526020017f53544d580000000000000000000000000000000000000000000000000000000081525081526020016040518060400160405280600381526020017f57414e000000000000000000000000000000000000000000000000000000000081525081526020016040518060400160405280600481526020017f4b4c41590000000000000000000000000000000000000000000000000000000081525081526020016040518060400160405280600381526020017f534f4c000000000000000000000000000000000000000000000000000000000081525081526020016040518060400160405280600381526020017f5a5258000000000000000000000000000000000000000000000000000000000081525081526020016040518060400160405280600381526020017f444149000000000000000000000000000000000000000000000000000000000081525081526020016040518060400160405280600381526020017f46554e000000000000000000000000000000000000000000000000000000000081525081526020016040518060400160405280600581526020017f4f4345414e00000000000000000000000000000000000000000000000000000081525081526020016040518060400160405280600381526020017f444f54000000000000000000000000000000000000000000000000000000000081525081526020016040518060400160405280600381526020017f4f524e000000000000000000000000000000000000000000000000000000000081525081526020016040518060400160405280600481526020017f43454c520000000000000000000000000000000000000000000000000000000081525081526020016040518060400160405280600481526020017f594649490000000000000000000000000000000000000000000000000000000081525081526020016040518060400160405280600481526020017f4e5058530000000000000000000000000000000000000000000000000000000081525081526020016040518060400160405280600781526020017f454f53424541520000000000000000000000000000000000000000000000000081525081526020016040518060400160405280600381526020017f494e4a000000000000000000000000000000000000000000000000000000000081525081526020016040518060400160405280600381526020017f4d4654000000000000000000000000000000000000000000000000000000000081525081526020016040518060400160405280600481526020017f52414d500000000000000000000000000000000000000000000000000000000081525081526020016040518060400160405280600381526020017f475443000000000000000000000000000000000000000000000000000000000081525081526020016040518060400160405280600381526020017f424152000000000000000000000000000000000000000000000000000000000081525081526020016040518060400160405280600381526020017f4d4b52000000000000000000000000000000000000000000000000000000000081525081526020016040518060400160405280600481526020017f524f53450000000000000000000000000000000000000000000000000000000081525081526020016040518060400160405280600481526020017f494445580000000000000000000000000000000000000000000000000000000081525081526020016040518060400160405280600381526020017f415352000000000000000000000000000000000000000000000000000000000081525081526020016040518060400160405280600381526020017f4a5354000000000000000000000000000000000000000000000000000000000081525081526020016040518060400160405280600381526020017f41434d000000000000000000000000000000000000000000000000000000000081525081526020016040518060400160405280600481526020017f5154554d0000000000000000000000000000000000000000000000000000000081525081526020016040518060400160405280600481526020017f534849420000000000000000000000000000000000000000000000000000000081525081526020016040518060400160405280600381526020017f424e54000000000000000000000000000000000000000000000000000000000081525081526020016040518060400160405280600481526020017f4d41534b0000000000000000000000000000000000000000000000000000000081525081526020016040518060400160405280600381526020017f494c56000000000000000000000000000000000000000000000000000000000081525081526020016040518060400160405280600481526020017f444f444f0000000000000000000000000000000000000000000000000000000081525081526020016040518060400160405280600781526020017f455448424541520000000000000000000000000000000000000000000000000081525081526020016040518060400160405280600481526020017f4d414e410000000000000000000000000000000000000000000000000000000081525081526020016040518060400160405280600381526020017f424c5a000000000000000000000000000000000000000000000000000000000081525081526020016040518060400160405280600381526020017f535458000000000000000000000000000000000000000000000000000000000081525081526020016040518060400160405280600581526020017f31494e434800000000000000000000000000000000000000000000000000000081525081526020016040518060400160405280600381526020017f58545a000000000000000000000000000000000000000000000000000000000081525081526020016040518060400160405280600381526020017f4b4e43000000000000000000000000000000000000000000000000000000000081525081526020016040518060400160405280600381526020017f444941000000000000000000000000000000000000000000000000000000000081525081526020016040518060400160405280600781526020017f424e42424541520000000000000000000000000000000000000000000000000081525081526020016040518060400160405280600381526020017f514e54000000000000000000000000000000000000000000000000000000000081525081526020016040518060400160405280600381526020017f484e54000000000000000000000000000000000000000000000000000000000081525081526020016040518060400160405280600381526020017f4c5054000000000000000000000000000000000000000000000000000000000081525081526020016040518060400160405280600381526020017f594747000000000000000000000000000000000000000000000000000000000081525081526020016040518060400160405280600481526020017f4245414d0000000000000000000000000000000000000000000000000000000081525081526020016040518060400160405280600381526020017f53554e000000000000000000000000000000000000000000000000000000000081525081526020016040518060400160405280600381526020017f434b42000000000000000000000000000000000000000000000000000000000081525081526020016040518060400160405280600481526020017f445944580000000000000000000000000000000000000000000000000000000081525081526020016040518060400160405280600381526020017f434f53000000000000000000000000000000000000000000000000000000000081525081526020016040518060400160405280600481526020017f4c494e4b0000000000000000000000000000000000000000000000000000000081525081526020016040518060400160405280600381526020017f464554000000000000000000000000000000000000000000000000000000000081525081526020016040518060400160405280600481526020017f5654484f0000000000000000000000000000000000000000000000000000000081525081526020016040518060400160405280600381526020017f474250000000000000000000000000000000000000000000000000000000000081525081526020016040518060400160405280600481526020017f43454c4f0000000000000000000000000000000000000000000000000000000081525081526020016040518060400160405280600681526020017f414c50414341000000000000000000000000000000000000000000000000000081525081526020016040518060400160405280600481526020017f564944540000000000000000000000000000000000000000000000000000000081525081526020016040518060400160405280600381526020017f535953000000000000000000000000000000000000000000000000000000000081525081526020016040518060400160405280600281526020017f484300000000000000000000000000000000000000000000000000000000000081525081526020016040518060400160405280600581526020017f535452415400000000000000000000000000000000000000000000000000000081525081526020016040518060400160405280600381526020017f524c43000000000000000000000000000000000000000000000000000000000081525081526020016040518060400160405280600381526020017f525352000000000000000000000000000000000000000000000000000000000081525081526020016040518060400160405280600481526020017f504552500000000000000000000000000000000000000000000000000000000081525081526020016040518060400160405280600381526020017f454c46000000000000000000000000000000000000000000000000000000000081525081526020016040518060400160405280600481526020017f424554410000000000000000000000000000000000000000000000000000000081525081526020016040518060400160405280600481526020017f444558450000000000000000000000000000000000000000000000000000000081525081526020016040518060400160405280600481526020017f494f53540000000000000000000000000000000000000000000000000000000081525081526020016040518060400160405280600381526020017f545255000000000000000000000000000000000000000000000000000000000081525081526020016040518060400160405280600381526020017f42414c000000000000000000000000000000000000000000000000000000000081525081526020016040518060400160405280600381526020017f46494f000000000000000000000000000000000000000000000000000000000081525081526020016040518060400160405280600381526020017f4d4454000000000000000000000000000000000000000000000000000000000081525081526020016040518060400160405280600381526020017f484f54000000000000000000000000000000000000000000000000000000000081525081526020016040518060400160405280600481526020017f444f47450000000000000000000000000000000000000000000000000000000081525081526020016040518060400160405280600381526020017f414e54000000000000000000000000000000000000000000000000000000000081525081526020016040518060400160405280600381526020017f4c5243000000000000000000000000000000000000000000000000000000000081525081526020016040518060400160405280600481526020017f495249530000000000000000000000000000000000000000000000000000000081525081526020016040518060400160405280600381526020017f4f5854000000000000000000000000000000000000000000000000000000000081525081526020016040518060400160405280600381526020017f55544b000000000000000000000000000000000000000000000000000000000081525081526020016040518060400160405280600381526020017f46494c000000000000000000000000000000000000000000000000000000000081525081526020016040518060400160405280600481526020017f47414c410000000000000000000000000000000000000000000000000000000081525081526020016040518060400160405280600581526020017f415544494f00000000000000000000000000000000000000000000000000000081525081526020016040518060400160405280600381526020017f5a4543000000000000000000000000000000000000000000000000000000000081525081526020016040518060400160405280600281526020017f534300000000000000000000000000000000000000000000000000000000000081525081526020016040518060400160405280600381526020017f465454000000000000000000000000000000000000000000000000000000000081525081526020016040518060400160405280600381526020017f584c4d000000000000000000000000000000000000000000000000000000000081525081526020016040518060400160405280600381526020017f4c534b000000000000000000000000000000000000000000000000000000000081525081526020016040518060400160405280600481526020017f415641580000000000000000000000000000000000000000000000000000000081525081526020016040518060400160405280600381526020017f5a494c000000000000000000000000000000000000000000000000000000000081525081526020016040518060400160405280600681526020017f424348414243000000000000000000000000000000000000000000000000000081525081526020016040518060400160405280600581526020017f434f434f5300000000000000000000000000000000000000000000000000000081525081526020016040518060400160405280600381526020017f425453000000000000000000000000000000000000000000000000000000000081525081526020016040518060400160405280600281526020017f4e5500000000000000000000000000000000000000000000000000000000000081525081526020016040518060400160405280600481526020017f524152450000000000000000000000000000000000000000000000000000000081525081526020016040518060400160405280600381526020017f4e4d52000000000000000000000000000000000000000000000000000000000081525081526020016040518060400160405280600381526020017f524144000000000000000000000000000000000000000000000000000000000081525081526020016040518060400160405280600481526020017f4e554c5300000000000000000000000000000000000000000000000000000000815250815250600c9061012e6200462a9291906200503d565b50604051806101e001604052806040518060400160405280600381526020017f427579000000000000000000000000000000000000000000000000000000000081525081526020016040518060400160405280600481526020017f53656c6c0000000000000000000000000000000000000000000000000000000081525081526020016040518060400160405280600481526020017f596f6c6f0000000000000000000000000000000000000000000000000000000081525081526020016040518060400160405280600881526020017f537461794177617900000000000000000000000000000000000000000000000081525081526020016040518060400160405280600481526020017f576169740000000000000000000000000000000000000000000000000000000081525081526020016040518060400160405280600581526020017f41766f696400000000000000000000000000000000000000000000000000000081525081526020016040518060400160405280600481526020017f4861636b0000000000000000000000000000000000000000000000000000000081525081526020016040518060400160405280600381526020017f557365000000000000000000000000000000000000000000000000000000000081525081526020016040518060400160405280600381526020017f576879000000000000000000000000000000000000000000000000000000000081525081526020016040518060400160405280600881526020017f4372617a7942757900000000000000000000000000000000000000000000000081525081526020016040518060400160405280600981526020017f446f4e6f7453656c6c000000000000000000000000000000000000000000000081525081526020016040518060400160405280600c81526020017f4469616d6f6e6448616e6473000000000000000000000000000000000000000081525081526020016040518060400160405280600681526020017f496e76657374000000000000000000000000000000000000000000000000000081525081526020016040518060400160405280600c81526020017f57616c6b4177617946726f6d000000000000000000000000000000000000000081525081526020016040518060400160405280600b81526020017f446f4e6f74476f4e656172000000000000000000000000000000000000000000815250815250600d90600f620049bc929190620050a4565b506040518061016001604052806040518060400160405280600881526020017f4c696b6548656c6c00000000000000000000000000000000000000000000000081525081526020016040518060400160405280600681526020017f537475706964000000000000000000000000000000000000000000000000000081525081526020016040518060400160405280600481526020017f466f6f6c0000000000000000000000000000000000000000000000000000000081525081526020016040518060400160405280600981526020017f546f47657452696368000000000000000000000000000000000000000000000081525081526020016040518060400160405280600481526020017f4e6f6e650000000000000000000000000000000000000000000000000000000081525081526020016040518060400160405280600d81526020017f57697468466976654275636b730000000000000000000000000000000000000081525081526020016040518060400160405280600381526020017f536572000000000000000000000000000000000000000000000000000000000081525081526020016040518060400160405280600481526020017f414c6f740000000000000000000000000000000000000000000000000000000081525081526020016040518060400160405280600881526020017f546f6d6f72726f7700000000000000000000000000000000000000000000000081525081526020016040518060400160405280600881526020017f4e6578745765656b00000000000000000000000000000000000000000000000081525081526020016040518060400160405280601481526020017f576974684669766548756e647265644275636b73000000000000000000000000815250815250600e90600b62004c629291906200510b565b506040518060c001604052806040518060400160405280600381526020017f726564000000000000000000000000000000000000000000000000000000000081525081526020016040518060400160405280600781526020017f233038433241380000000000000000000000000000000000000000000000000081525081526020016040518060400160405280600581526020017f626c61636b00000000000000000000000000000000000000000000000000000081525081526020016040518060400160405280600681526020017f79656c6c6f77000000000000000000000000000000000000000000000000000081525081526020016040518060400160405280600481526020017f626c75650000000000000000000000000000000000000000000000000000000081525081526020016040518060400160405280600581526020017f677265656e000000000000000000000000000000000000000000000000000000815250815250600f90600662004de092919062005172565b5034801562004dee57600080fd5b506040518060400160405280600981526020017f5371756172654e465400000000000000000000000000000000000000000000008152506040518060400160405280600681526020017f5351554152450000000000000000000000000000000000000000000000000000815250816000908051906020019062004e7392919062004fac565b50806001908051906020019062004e8c92919062004fac565b50505062004eda6040518060400160405280601e81526020017f54686973206973206d79204e465420636f6e74726163742e20576f616821000081525062004ee060201b6200143e1760201c565b62005393565b62004f808160405160240162004ef79190620052a7565b6040516020818303038152906040527f41304fac000000000000000000000000000000000000000000000000000000007bffffffffffffffffffffffffffffffffffffffffffffffffffffffff19166020820180517bffffffffffffffffffffffffffffffffffffffffffffffffffffffff838183161783525050505062004f8360201b60201c565b50565b60008151905060006a636f6e736f6c652e6c6f679050602083016000808483855afa5050505050565b82805462004fba906200531d565b90600052602060002090601f01602090048101928262004fde57600085556200502a565b82601f1062004ff957805160ff19168380011785556200502a565b828001600101855582156200502a579182015b82811115620050295782518255916020019190600101906200500c565b5b509050620050399190620051d9565b5090565b82805482825590600052602060002090810192821562005091579160200282015b82811115620050905782518290805190602001906200507f92919062004fac565b50916020019190600101906200505e565b5b509050620050a09190620051f8565b5090565b828054828255906000526020600020908101928215620050f8579160200282015b82811115620050f7578251829080519060200190620050e692919062004fac565b5091602001919060010190620050c5565b5b509050620051079190620051f8565b5090565b8280548282559060005260206000209081019282156200515f579160200282015b828111156200515e5782518290805190602001906200514d92919062004fac565b50916020019190600101906200512c565b5b5090506200516e9190620051f8565b5090565b828054828255906000526020600020908101928215620051c6579160200282015b82811115620051c5578251829080519060200190620051b492919062004fac565b509160200191906001019062005193565b5b509050620051d59190620051f8565b5090565b5b80821115620051f4576000816000905550600101620051da565b5090565b5b808211156200521c576000818162005212919062005220565b50600101620051f9565b5090565b5080546200522e906200531d565b6000825580601f1062005242575062005263565b601f016020900490600052602060002090810190620052629190620051d9565b5b50565b60006200527382620052cb565b6200527f8185620052d6565b935062005291818560208601620052e7565b6200529c8162005382565b840191505092915050565b60006020820190508181036000830152620052c3818462005266565b905092915050565b600081519050919050565b600082825260208201905092915050565b60005b8381101562005307578082015181840152602081019050620052ea565b8381111562005317576000848401525b50505050565b600060028204905060018216806200533657607f821691505b602082108114156200534d576200534c62005353565b5b50919050565b7f4e487b7100000000000000000000000000000000000000000000000000000000600052602260045260246000fd5b6000601f19601f8301169050919050565b613cb780620053a36000396000f3fe608060405234801561001057600080fd5b506004361061012c5760003560e01c806395d89b41116100ad578063c0daddfd11610071578063c0daddfd14610367578063c575757a14610385578063c87b56dd146103b5578063de9d132f146103e5578063e985e9c5146103ef5761012c565b806395d89b41146102c3578063a22cb465146102e1578063b187301f146102fd578063b374befd1461032d578063b88d4fde1461034b5761012c565b80632de38d68116100f45780632de38d68146101e757806342842e0e14610217578063514dc8c6146102335780636352211e1461026357806370a08231146102935761012c565b806301ffc9a71461013157806306fdde0314610161578063081812fc1461017f578063095ea7b3146101af57806323b872dd146101cb575b600080fd5b61014b600480360381019061014691906126d1565b61041f565b6040516101589190612e5d565b60405180910390f35b610169610501565b6040516101769190612e78565b60405180910390f35b61019960048036038101906101949190612723565b610593565b6040516101a69190612dcd565b60405180910390f35b6101c960048036038101906101c49190612695565b610618565b005b6101e560048036038101906101e0919061258f565b610730565b005b61020160048036038101906101fc9190612723565b610790565b60405161020e9190612e78565b60405180910390f35b610231600480360381019061022c919061258f565b6108ae565b005b61024d60048036038101906102489190612723565b6108ce565b60405161025a9190612e78565b60405180910390f35b61027d60048036038101906102789190612723565b6109ec565b60405161028a9190612dcd565b60405180910390f35b6102ad60048036038101906102a8919061252a565b610a9e565b6040516102ba91906130f8565b60405180910390f35b6102cb610b56565b6040516102d89190612e78565b60405180910390f35b6102fb60048036038101906102f69190612659565b610be8565b005b61031760048036038101906103129190612723565b610d69565b6040516103249190612e78565b60405180910390f35b610335610e87565b60405161034291906130f8565b60405180910390f35b610365600480360381019061036091906125de565b610e8d565b005b61036f610eef565b60405161037c91906130f8565b60405180910390f35b61039f600480360381019061039a9190612723565b610ef5565b6040516103ac9190612e78565b60405180910390f35b6103cf60048036038101906103ca9190612723565b611013565b6040516103dc9190612e78565b60405180910390f35b6103ed611165565b005b61040960048036038101906104049190612553565b6113aa565b6040516104169190612e5d565b60405180910390f35b60007f80ac58cd000000000000000000000000000000000000000000000000000000007bffffffffffffffffffffffffffffffffffffffffffffffffffffffff1916827bffffffffffffffffffffffffffffffffffffffffffffffffffffffff191614806104ea57507f5b5e139f000000000000000000000000000000000000000000000000000000007bffffffffffffffffffffffffffffffffffffffffffffffffffffffff1916827bffffffffffffffffffffffffffffffffffffffffffffffffffffffff1916145b806104fa57506104f9826114d7565b5b9050919050565b6060600080546105109061338c565b80601f016020809104026020016040519081016040528092919081815260200182805461053c9061338c565b80156105895780601f1061055e57610100808354040283529160200191610589565b820191906000526020600020905b81548152906001019060200180831161056c57829003601f168201915b5050505050905090565b600061059e82611541565b6105dd576040517f08c379a00000000000000000000000000000000000000000000000000000000081526004016105d490613058565b60405180910390fd5b6004600083815260200190815260200160002060009054906101000a900473ffffffffffffffffffffffffffffffffffffffff169050919050565b6000610623826109ec565b90508073ffffffffffffffffffffffffffffffffffffffff168373ffffffffffffffffffffffffffffffffffffffff161415610694576040517f08c379a000000000000000000000000000000000000000000000000000000000815260040161068b906130b8565b60405180910390fd5b8073ffffffffffffffffffffffffffffffffffffffff166106b36115ad565b73ffffffffffffffffffffffffffffffffffffffff1614806106e257506106e1816106dc6115ad565b6113aa565b5b610721576040517f08c379a000000000000000000000000000000000000000000000000000000000815260040161071890612f98565b60405180910390fd5b61072b83836115b5565b505050565b61074161073b6115ad565b8261166e565b610780576040517f08c379a0000000000000000000000000000000000000000000000000000000008152600401610777906130d8565b60405180910390fd5b61078b83838361174c565b505050565b606060006107c46107a0846119a8565b6040516020016107b09190612d67565b604051602081830303815290604052611b55565b9050600d80549050816107d79190613438565b9050600d8181548110610813577f4e487b7100000000000000000000000000000000000000000000000000000000600052603260045260246000fd5b9060005260206000200180546108289061338c565b80601f01602080910402602001604051908101604052809291908181526020018280546108549061338c565b80156108a15780601f10610876576101008083540402835291602001916108a1565b820191906000526020600020905b81548152906001019060200180831161088457829003601f168201915b5050505050915050919050565b6108c983838360405180602001604052806000815250610e8d565b505050565b606060006109026108de846119a8565b6040516020016108ee9190612dab565b604051602081830303815290604052611b55565b9050600f80549050816109159190613438565b9050600f8181548110610951577f4e487b7100000000000000000000000000000000000000000000000000000000600052603260045260246000fd5b9060005260206000200180546109669061338c565b80601f01602080910402602001604051908101604052809291908181526020018280546109929061338c565b80156109df5780601f106109b4576101008083540402835291602001916109df565b820191906000526020600020905b8154815290600101906020018083116109c257829003601f168201915b5050505050915050919050565b6000806002600084815260200190815260200160002060009054906101000a900473ffffffffffffffffffffffffffffffffffffffff169050600073ffffffffffffffffffffffffffffffffffffffff168173ffffffffffffffffffffffffffffffffffffffff161415610a95576040517f08c379a0000000000000000000000000000000000000000000000000000000008152600401610a8c90612fd8565b60405180910390fd5b80915050919050565b60008073ffffffffffffffffffffffffffffffffffffffff168273ffffffffffffffffffffffffffffffffffffffff161415610b0f576040517f08c379a0000000000000000000000000000000000000000000000000000000008152600401610b0690612fb8565b60405180910390fd5b600360008373ffffffffffffffffffffffffffffffffffffffff1673ffffffffffffffffffffffffffffffffffffffff168152602001908152602001600020549050919050565b606060018054610b659061338c565b80601f0160208091040260200160405190810160405280929190818152602001828054610b919061338c565b8015610bde5780601f10610bb357610100808354040283529160200191610bde565b820191906000526020600020905b815481529060010190602001808311610bc157829003601f168201915b5050505050905090565b610bf06115ad565b73ffffffffffffffffffffffffffffffffffffffff168273ffffffffffffffffffffffffffffffffffffffff161415610c5e576040517f08c379a0000000000000000000000000000000000000000000000000000000008152600401610c5590612f58565b60405180910390fd5b8060056000610c6b6115ad565b73ffffffffffffffffffffffffffffffffffffffff1673ffffffffffffffffffffffffffffffffffffffff16815260200190815260200160002060008473ffffffffffffffffffffffffffffffffffffffff1673ffffffffffffffffffffffffffffffffffffffff16815260200190815260200160002060006101000a81548160ff0219169083151502179055508173ffffffffffffffffffffffffffffffffffffffff16610d186115ad565b73ffffffffffffffffffffffffffffffffffffffff167f17307eab39ab6107e8899845ad3d59bd9653f200f220920489ca2b5937696c3183604051610d5d9190612e5d565b60405180910390a35050565b60606000610d9d610d79846119a8565b604051602001610d899190612d00565b604051602081830303815290604052611b55565b9050600c8054905081610db09190613438565b9050600c8181548110610dec577f4e487b7100000000000000000000000000000000000000000000000000000000600052603260045260246000fd5b906000526020600020018054610e019061338c565b80601f0160208091040260200160405190810160405280929190818152602001828054610e2d9061338c565b8015610e7a5780601f10610e4f57610100808354040283529160200191610e7a565b820191906000526020600020905b815481529060010190602001808311610e5d57829003601f168201915b5050505050915050919050565b60095481565b610e9e610e986115ad565b8361166e565b610edd576040517f08c379a0000000000000000000000000000000000000000000000000000000008152600401610ed4906130d8565b60405180910390fd5b610ee984848484611b88565b50505050565b60085481565b60606000610f29610f05846119a8565b604051602001610f159190612cde565b604051602081830303815290604052611b55565b9050600e8054905081610f3c9190613438565b9050600e8181548110610f78577f4e487b7100000000000000000000000000000000000000000000000000000000600052603260045260246000fd5b906000526020600020018054610f8d9061338c565b80601f0160208091040260200160405190810160405280929190818152602001828054610fb99061338c565b80156110065780601f10610fdb57610100808354040283529160200191611006565b820191906000526020600020905b815481529060010190602001808311610fe957829003601f168201915b5050505050915050919050565b606061101e82611541565b61105d576040517f08c379a000000000000000000000000000000000000000000000000000000000815260040161105490613038565b60405180910390fd5b600060066000848152602001908152602001600020805461107d9061338c565b80601f01602080910402602001604051908101604052809291908181526020018280546110a99061338c565b80156110f65780601f106110cb576101008083540402835291602001916110f6565b820191906000526020600020905b8154815290600101906020018083116110d957829003601f168201915b505050505090506000611107611be4565b905060008151141561111d578192505050611160565b60008251111561115257808260405160200161113a929190612c40565b60405160208183030381529060405292505050611160565b61115b84611bfb565b925050505b919050565b60006111716007611ca2565b905060085481106111b7576040517f08c379a00000000000000000000000000000000000000000000000000000000081526004016111ae90612f18565b60405180910390fd5b8060098190555060006111c982610790565b905060006111d683610d69565b905060006111e384610ef5565b905060008383836040516020016111fc93929190612c64565b60405160208183030381529060405290506000611218866108ce565b90506000600a82600b856040516020016112359493929190612c95565b6040516020818303038152906040529050600061127a8461125584611cb0565b604051602001611266929190612d22565b604051602081830303815290604052611cb0565b905060008160405160200161128f9190612d89565b60405160208183030381529060405290506112de6040518060400160405280601581526020017f0a2d2d2d2d2d2d2d2d2d2d2d2d2d2d2d2d2d2d2d2d000000000000000000000081525061143e565b6112e78161143e565b6113256040518060400160405280601581526020017f2d2d2d2d2d2d2d2d2d2d2d2d2d2d2d2d2d2d2d2d0a000000000000000000000081525061143e565b61132f338a611e6e565b6113398982611e8c565b6113436007611f00565b611366604051806060016040528060258152602001613c1d602591398a33611f16565b7febb98688741ffa4c7589bf325de30cf7becb63de567842e1ccdb6cb949fdc82c338a604051611397929190612e34565b60405180910390a1505050505050505050565b6000600560008473ffffffffffffffffffffffffffffffffffffffff1673ffffffffffffffffffffffffffffffffffffffff16815260200190815260200160002060008373ffffffffffffffffffffffffffffffffffffffff1673ffffffffffffffffffffffffffffffffffffffff16815260200190815260200160002060009054906101000a900460ff16905092915050565b6114d4816040516024016114529190612e78565b6040516020818303038152906040527f41304fac000000000000000000000000000000000000000000000000000000007bffffffffffffffffffffffffffffffffffffffffffffffffffffffff19166020820180517bffffffffffffffffffffffffffffffffffffffffffffffffffffffff8381831617835250505050611fb5565b50565b60007f01ffc9a7000000000000000000000000000000000000000000000000000000007bffffffffffffffffffffffffffffffffffffffffffffffffffffffff1916827bffffffffffffffffffffffffffffffffffffffffffffffffffffffff1916149050919050565b60008073ffffffffffffffffffffffffffffffffffffffff166002600084815260200190815260200160002060009054906101000a900473ffffffffffffffffffffffffffffffffffffffff1673ffffffffffffffffffffffffffffffffffffffff1614159050919050565b600033905090565b816004600083815260200190815260200160002060006101000a81548173ffffffffffffffffffffffffffffffffffffffff021916908373ffffffffffffffffffffffffffffffffffffffff160217905550808273ffffffffffffffffffffffffffffffffffffffff16611628836109ec565b73ffffffffffffffffffffffffffffffffffffffff167f8c5be1e5ebec7d5bd14f71427d1e84f3dd0314c0f7b2291e5b200ac8c7c3b92560405160405180910390a45050565b600061167982611541565b6116b8576040517f08c379a00000000000000000000000000000000000000000000000000000000081526004016116af90612f78565b60405180910390fd5b60006116c3836109ec565b90508073ffffffffffffffffffffffffffffffffffffffff168473ffffffffffffffffffffffffffffffffffffffff16148061173257508373ffffffffffffffffffffffffffffffffffffffff1661171a84610593565b73ffffffffffffffffffffffffffffffffffffffff16145b80611743575061174281856113aa565b5b91505092915050565b8273ffffffffffffffffffffffffffffffffffffffff1661176c826109ec565b73ffffffffffffffffffffffffffffffffffffffff16146117c2576040517f08c379a00000000000000000000000000000000000000000000000000000000081526004016117b990613078565b60405180910390fd5b600073ffffffffffffffffffffffffffffffffffffffff168273ffffffffffffffffffffffffffffffffffffffff161415611832576040517f08c379a000000000000000000000000000000000000000000000000000000000815260040161182990612f38565b60405180910390fd5b61183d838383611fde565b6118486000826115b5565b6001600360008573ffffffffffffffffffffffffffffffffffffffff1673ffffffffffffffffffffffffffffffffffffffff168152602001908152602001600020600082825461189891906132a2565b925050819055506001600360008473ffffffffffffffffffffffffffffffffffffffff1673ffffffffffffffffffffffffffffffffffffffff16815260200190815260200160002060008282546118ef91906131c1565b92505081905550816002600083815260200190815260200160002060006101000a81548173ffffffffffffffffffffffffffffffffffffffff021916908373ffffffffffffffffffffffffffffffffffffffff160217905550808273ffffffffffffffffffffffffffffffffffffffff168473ffffffffffffffffffffffffffffffffffffffff167fddf252ad1be2c89b69c2b068fc378daa952ba7f163c4a11628f55a4df523b3ef60405160405180910390a4505050565b606060008214156119f0576040518060400160405280600181526020017f30000000000000000000000000000000000000000000000000000000000000008152509050611b50565b600082905060005b60008214611a22578080611a0b906133ef565b915050600a82611a1b9190613217565b91506119f8565b60008167ffffffffffffffff811115611a64577f4e487b7100000000000000000000000000000000000000000000000000000000600052604160045260246000fd5b6040519080825280601f01601f191660200182016040528015611a965781602001600182028036833780820191505090505b5090505b60008514611b4957600182611aaf91906132a2565b9150600a85611abe9190613438565b6030611aca91906131c1565b60f81b818381518110611b06577f4e487b7100000000000000000000000000000000000000000000000000000000600052603260045260246000fd5b60200101907effffffffffffffffffffffffffffffffffffffffffffffffffffffffffffff1916908160001a905350600a85611b429190613217565b9450611a9a565b8093505050505b919050565b600081604051602001611b689190612c29565b6040516020818303038152906040528051906020012060001c9050919050565b611b9384848461174c565b611b9f84848484611fe3565b611bde576040517f08c379a0000000000000000000000000000000000000000000000000000000008152600401611bd590612ed8565b60405180910390fd5b50505050565b606060405180602001604052806000815250905090565b6060611c0682611541565b611c45576040517f08c379a0000000000000000000000000000000000000000000000000000000008152600401611c3c90613098565b60405180910390fd5b6000611c4f611be4565b90506000815111611c6f5760405180602001604052806000815250611c9a565b80611c79846119a8565b604051602001611c8a929190612c40565b6040516020818303038152906040525b915050919050565b600081600001549050919050565b60606000825190506000811415611cd95760405180602001604052806000815250915050611e69565b60006003600283611cea91906131c1565b611cf49190613217565b6004611d009190613248565b90506000602082611d1191906131c1565b67ffffffffffffffff811115611d50577f4e487b7100000000000000000000000000000000000000000000000000000000600052604160045260246000fd5b6040519080825280601f01601f191660200182016040528015611d825781602001600182028036833780820191505090505b5090506000604051806060016040528060408152602001613c42604091399050600181016020830160005b86811015611e265760038101905062ffffff818a015116603f8160121c168401518060081b905060ff603f83600c1c1686015116810190508060081b905060ff603f8360061c1686015116810190508060081b905060ff603f831686015116810190508060e01b90508084526004840193505050611dad565b506003860660018114611e405760028114611e5057611e5b565b613d3d60f01b6002830352611e5b565b603d60f81b60018303525b508484525050819450505050505b919050565b611e8882826040518060200160405280600081525061217a565b5050565b611e9582611541565b611ed4576040517f08c379a0000000000000000000000000000000000000000000000000000000008152600401611ecb90612ff8565b60405180910390fd5b80600660008481526020019081526020016000209080519060200190611efb9291906123b6565b505050565b6001816000016000828254019250508190555050565b611fb0838383604051602401611f2e93929190612e9a565b6040516020818303038152906040527fe3849f79000000000000000000000000000000000000000000000000000000007bffffffffffffffffffffffffffffffffffffffffffffffffffffffff19166020820180517bffffffffffffffffffffffffffffffffffffffffffffffffffffffff8381831617835250505050611fb5565b505050565b60008151905060006a636f6e736f6c652e6c6f679050602083016000808483855afa5050505050565b505050565b60006120048473ffffffffffffffffffffffffffffffffffffffff166121d5565b1561216d578373ffffffffffffffffffffffffffffffffffffffff1663150b7a0261202d6115ad565b8786866040518563ffffffff1660e01b815260040161204f9493929190612de8565b602060405180830381600087803b15801561206957600080fd5b505af192505050801561209a57506040513d601f19601f8201168201806040525081019061209791906126fa565b60015b61211d573d80600081146120ca576040519150601f19603f3d011682016040523d82523d6000602084013e6120cf565b606091505b50600081511415612115576040517f08c379a000000000000000000000000000000000000000000000000000000000815260040161210c90612ed8565b60405180910390fd5b805181602001fd5b63150b7a0260e01b7bffffffffffffffffffffffffffffffffffffffffffffffffffffffff1916817bffffffffffffffffffffffffffffffffffffffffffffffffffffffff191614915050612172565b600190505b949350505050565b61218483836121e8565b6121916000848484611fe3565b6121d0576040517f08c379a00000000000000000000000000000000000000000000000000000000081526004016121c790612ed8565b60405180910390fd5b505050565b600080823b905060008111915050919050565b600073ffffffffffffffffffffffffffffffffffffffff168273ffffffffffffffffffffffffffffffffffffffff161415612258576040517f08c379a000000000000000000000000000000000000000000000000000000000815260040161224f90613018565b60405180910390fd5b61226181611541565b156122a1576040517f08c379a000000000000000000000000000000000000000000000000000000000815260040161229890612ef8565b60405180910390fd5b6122ad60008383611fde565b6001600360008473ffffffffffffffffffffffffffffffffffffffff1673ffffffffffffffffffffffffffffffffffffffff16815260200190815260200160002060008282546122fd91906131c1565b92505081905550816002600083815260200190815260200160002060006101000a81548173ffffffffffffffffffffffffffffffffffffffff021916908373ffffffffffffffffffffffffffffffffffffffff160217905550808273ffffffffffffffffffffffffffffffffffffffff16600073ffffffffffffffffffffffffffffffffffffffff167fddf252ad1be2c89b69c2b068fc378daa952ba7f163c4a11628f55a4df523b3ef60405160405180910390a45050565b8280546123c29061338c565b90600052602060002090601f0160209004810192826123e4576000855561242b565b82601f106123fd57805160ff191683800117855561242b565b8280016001018555821561242b579182015b8281111561242a57825182559160200191906001019061240f565b5b509050612438919061243c565b5090565b5b8082111561245557600081600090555060010161243d565b5090565b600061246c61246784613138565b613113565b90508281526020810184848401111561248457600080fd5b61248f84828561334a565b509392505050565b6000813590506124a681613bc0565b92915050565b6000813590506124bb81613bd7565b92915050565b6000813590506124d081613bee565b92915050565b6000815190506124e581613bee565b92915050565b600082601f8301126124fc57600080fd5b813561250c848260208601612459565b91505092915050565b60008135905061252481613c05565b92915050565b60006020828403121561253c57600080fd5b600061254a84828501612497565b91505092915050565b6000806040838503121561256657600080fd5b600061257485828601612497565b925050602061258585828601612497565b9150509250929050565b6000806000606084860312156125a457600080fd5b60006125b286828701612497565b93505060206125c386828701612497565b92505060406125d486828701612515565b9150509250925092565b600080600080608085870312156125f457600080fd5b600061260287828801612497565b945050602061261387828801612497565b935050604061262487828801612515565b925050606085013567ffffffffffffffff81111561264157600080fd5b61264d878288016124eb565b91505092959194509250565b6000806040838503121561266c57600080fd5b600061267a85828601612497565b925050602061268b858286016124ac565b9150509250929050565b600080604083850312156126a857600080fd5b60006126b685828601612497565b92505060206126c785828601612515565b9150509250929050565b6000602082840312156126e357600080fd5b60006126f1848285016124c1565b91505092915050565b60006020828403121561270c57600080fd5b600061271a848285016124d6565b91505092915050565b60006020828403121561273557600080fd5b600061274384828501612515565b91505092915050565b612755816132d6565b82525050565b612764816132e8565b82525050565b60006127758261317e565b61277f8185613194565b935061278f818560208601613359565b61279881613525565b840191505092915050565b60006127ae82613189565b6127b881856131a5565b93506127c8818560208601613359565b6127d181613525565b840191505092915050565b60006127e782613189565b6127f181856131b6565b9350612801818560208601613359565b80840191505092915050565b6000815461281a8161338c565b61282481866131b6565b9450600182166000811461283f576001811461285057612883565b60ff19831686528186019350612883565b61285985613169565b60005b8381101561287b5781548189015260018201915060208101905061285c565b838801955050505b50505092915050565b6000612899607b836131b6565b91506128a482613536565b607b82019050919050565b60006128bc6032836131a5565b91506128c7826135d1565b604082019050919050565b60006128df601c836131a5565b91506128ea82613620565b602082019050919050565b6000612902600a836131b6565b915061290d82613649565b600a82019050919050565b60006129256015836131a5565b915061293082613672565b602082019050919050565b60006129486024836131a5565b91506129538261369b565b604082019050919050565b600061296b6019836131a5565b9150612976826136ea565b602082019050919050565b600061298e600b836131b6565b915061299982613713565b600b82019050919050565b60006129b1602c836131a5565b91506129bc8261373c565b604082019050919050565b60006129d4600d836131b6565b91506129df8261378b565b600d82019050919050565b60006129f76038836131a5565b9150612a02826137b4565b604082019050919050565b6000612a1a602a836131a5565b9150612a2582613803565b604082019050919050565b6000612a3d6029836131a5565b9150612a4882613852565b604082019050919050565b6000612a60602e836131a5565b9150612a6b826138a1565b604082019050919050565b6000612a836002836131b6565b9150612a8e826138f0565b600282019050919050565b6000612aa66020836131a5565b9150612ab182613919565b602082019050919050565b6000612ac96031836131a5565b9150612ad482613942565b604082019050919050565b6000612aec602c836131a5565b9150612af782613991565b604082019050919050565b6000612b0f6029836131a5565b9150612b1a826139e0565b604082019050919050565b6000612b32602f836131a5565b9150612b3d82613a2f565b604082019050919050565b6000612b55600a836131b6565b9150612b6082613a7e565b600a82019050919050565b6000612b786021836131a5565b9150612b8382613aa7565b604082019050919050565b6000612b9b600a836131b6565b9150612ba682613af6565b600a82019050919050565b6000612bbe601d836131b6565b9150612bc982613b1f565b601d82019050919050565b6000612be16031836131a5565b9150612bec82613b48565b604082019050919050565b6000612c046005836131b6565b9150612c0f82613b97565b600582019050919050565b612c2381613340565b82525050565b6000612c3582846127dc565b915081905092915050565b6000612c4c82856127dc565b9150612c5882846127dc565b91508190509392505050565b6000612c7082866127dc565b9150612c7c82856127dc565b9150612c8882846127dc565b9150819050949350505050565b6000612ca1828761280d565b9150612cad82866127dc565b9150612cb9828561280d565b9150612cc582846127dc565b9150612cd0826129c7565b915081905095945050505050565b6000612ce9826128f5565b9150612cf582846127dc565b915081905092915050565b6000612d0b82612981565b9150612d1782846127dc565b915081905092915050565b6000612d2d82612b48565b9150612d3982856127dc565b9150612d448261288c565b9150612d5082846127dc565b9150612d5b82612a76565b91508190509392505050565b6000612d7282612b8e565b9150612d7e82846127dc565b915081905092915050565b6000612d9482612bb1565b9150612da082846127dc565b915081905092915050565b6000612db682612bf7565b9150612dc282846127dc565b915081905092915050565b6000602082019050612de2600083018461274c565b92915050565b6000608082019050612dfd600083018761274c565b612e0a602083018661274c565b612e176040830185612c1a565b8181036060830152612e29818461276a565b905095945050505050565b6000604082019050612e49600083018561274c565b612e566020830184612c1a565b9392505050565b6000602082019050612e72600083018461275b565b92915050565b60006020820190508181036000830152612e9281846127a3565b905092915050565b60006060820190508181036000830152612eb481866127a3565b9050612ec36020830185612c1a565b612ed0604083018461274c565b949350505050565b60006020820190508181036000830152612ef1816128af565b9050919050565b60006020820190508181036000830152612f11816128d2565b9050919050565b60006020820190508181036000830152612f3181612918565b9050919050565b60006020820190508181036000830152612f518161293b565b9050919050565b60006020820190508181036000830152612f718161295e565b9050919050565b60006020820190508181036000830152612f91816129a4565b9050919050565b60006020820190508181036000830152612fb1816129ea565b9050919050565b60006020820190508181036000830152612fd181612a0d565b9050919050565b60006020820190508181036000830152612ff181612a30565b9050919050565b6000602082019050818103600083015261301181612a53565b9050919050565b6000602082019050818103600083015261303181612a99565b9050919050565b6000602082019050818103600083015261305181612abc565b9050919050565b6000602082019050818103600083015261307181612adf565b9050919050565b6000602082019050818103600083015261309181612b02565b9050919050565b600060208201905081810360008301526130b181612b25565b9050919050565b600060208201905081810360008301526130d181612b6b565b9050919050565b600060208201905081810360008301526130f181612bd4565b9050919050565b600060208201905061310d6000830184612c1a565b92915050565b600061311d61312e565b905061312982826133be565b919050565b6000604051905090565b600067ffffffffffffffff821115613153576131526134f6565b5b61315c82613525565b9050602081019050919050565b60008190508160005260206000209050919050565b600081519050919050565b600081519050919050565b600082825260208201905092915050565b600082825260208201905092915050565b600081905092915050565b60006131cc82613340565b91506131d783613340565b9250827fffffffffffffffffffffffffffffffffffffffffffffffffffffffffffffffff0382111561320c5761320b613469565b5b828201905092915050565b600061322282613340565b915061322d83613340565b92508261323d5761323c613498565b5b828204905092915050565b600061325382613340565b915061325e83613340565b9250817fffffffffffffffffffffffffffffffffffffffffffffffffffffffffffffffff048311821515161561329757613296613469565b5b828202905092915050565b60006132ad82613340565b91506132b883613340565b9250828210156132cb576132ca613469565b5b828203905092915050565b60006132e182613320565b9050919050565b60008115159050919050565b60007fffffffff0000000000000000000000000000000000000000000000000000000082169050919050565b600073ffffffffffffffffffffffffffffffffffffffff82169050919050565b6000819050919050565b82818337600083830152505050565b60005b8381101561337757808201518184015260208101905061335c565b83811115613386576000848401525b50505050565b600060028204905060018216806133a457607f821691505b602082108114156133b8576133b76134c7565b5b50919050565b6133c782613525565b810181811067ffffffffffffffff821117156133e6576133e56134f6565b5b80604052505050565b60006133fa82613340565b91507fffffffffffffffffffffffffffffffffffffffffffffffffffffffffffffffff82141561342d5761342c613469565b5b600182019050919050565b600061344382613340565b915061344e83613340565b92508261345e5761345d613498565b5b828206905092915050565b7f4e487b7100000000000000000000000000000000000000000000000000000000600052601160045260246000fd5b7f4e487b7100000000000000000000000000000000000000000000000000000000600052601260045260246000fd5b7f4e487b7100000000000000000000000000000000000000000000000000000000600052602260045260246000fd5b7f4e487b7100000000000000000000000000000000000000000000000000000000600052604160045260246000fd5b6000601f19601f8301169050919050565b7f222c20226465736372697074696f6e223a20224120686967686c79206163636c60008201527f61696d656420636f6c6c656374696f6e206f6620696e766573746d656e74207360208201527f74726174656769657320696e2043727970746f2e222c2022696d616765223a2060408201527f22646174613a696d6167652f7376672b786d6c3b6261736536342c0000000000606082015250565b7f4552433732313a207472616e7366657220746f206e6f6e20455243373231526560008201527f63656976657220696d706c656d656e7465720000000000000000000000000000602082015250565b7f4552433732313a20746f6b656e20616c7265616479206d696e74656400000000600082015250565b7f54484952445f574f524400000000000000000000000000000000000000000000600082015250565b7f746f74616c206e756d6265722065786365656465640000000000000000000000600082015250565b7f4552433732313a207472616e7366657220746f20746865207a65726f2061646460008201527f7265737300000000000000000000000000000000000000000000000000000000602082015250565b7f4552433732313a20617070726f766520746f2063616c6c657200000000000000600082015250565b7f5345434f4e445f574f5244000000000000000000000000000000000000000000600082015250565b7f4552433732313a206f70657261746f7220717565727920666f72206e6f6e657860008201527f697374656e7420746f6b656e0000000000000000000000000000000000000000602082015250565b7f3c2f746578743e3c2f7376673e00000000000000000000000000000000000000600082015250565b7f4552433732313a20617070726f76652063616c6c6572206973206e6f74206f7760008201527f6e6572206e6f7220617070726f76656420666f7220616c6c0000000000000000602082015250565b7f4552433732313a2062616c616e636520717565727920666f7220746865207a6560008201527f726f206164647265737300000000000000000000000000000000000000000000602082015250565b7f4552433732313a206f776e657220717565727920666f72206e6f6e657869737460008201527f656e7420746f6b656e0000000000000000000000000000000000000000000000602082015250565b7f45524337323155524953746f726167653a2055524920736574206f66206e6f6e60008201527f6578697374656e7420746f6b656e000000000000000000000000000000000000602082015250565b7f227d000000000000000000000000000000000000000000000000000000000000600082015250565b7f4552433732313a206d696e7420746f20746865207a65726f2061646472657373600082015250565b7f45524337323155524953746f726167653a2055524920717565727920666f722060008201527f6e6f6e6578697374656e7420746f6b656e000000000000000000000000000000602082015250565b7f4552433732313a20617070726f76656420717565727920666f72206e6f6e657860008201527f697374656e7420746f6b656e0000000000000000000000000000000000000000602082015250565b7f4552433732313a207472616e73666572206f6620746f6b656e2074686174206960008201527f73206e6f74206f776e0000000000000000000000000000000000000000000000602082015250565b7f4552433732314d657461646174613a2055524920717565727920666f72206e6f60008201527f6e6578697374656e7420746f6b656e0000000000000000000000000000000000602082015250565b7f7b226e616d65223a202200000000000000000000000000000000000000000000600082015250565b7f4552433732313a20617070726f76616c20746f2063757272656e74206f776e6560008201527f7200000000000000000000000000000000000000000000000000000000000000602082015250565b7f46495253545f574f524400000000000000000000000000000000000000000000600082015250565b7f646174613a6170706c69636174696f6e2f6a736f6e3b6261736536342c000000600082015250565b7f4552433732313a207472616e736665722063616c6c6572206973206e6f74206f60008201527f776e6572206e6f7220617070726f766564000000000000000000000000000000602082015250565b7f434f4c4f52000000000000000000000000000000000000000000000000000000600082015250565b613bc9816132d6565b8114613bd457600080fd5b50565b613be0816132e8565b8114613beb57600080fd5b50565b613bf7816132f4565b8114613c0257600080fd5b50565b613c0e81613340565b8114613c1957600080fd5b5056fe416e204e465420772f20494420257320686173206265656e206d696e74656420746f2025734142434445464748494a4b4c4d4e4f505152535455565758595a6162636465666768696a6b6c6d6e6f707172737475767778797a303132333435363738392b2fa2646970667358221220c5d04a345c40fbd64d25205193ae51df372ced4269dffa7825791bf956c73b2564736f6c634300080400333c73766720786d6c6e733d27687474703a2f2f7777772e77332e6f72672f323030302f73766727207072657365727665417370656374526174696f3d27784d696e594d696e206d656574272076696577426f783d273020302033353020333530273e3c7374796c653e2e62617365207b2066696c6c3a2077686974653b20666f6e742d66616d696c793a2073657269663b20666f6e742d73697a653a20323470783b207d3c2f7374796c653e3c726563742077696474683d273130302527206865696768743d2731303025272066696c6c3d27272f3e3c7465787420783d273530252720793d273530252720636c6173733d27626173652720646f6d696e616e742d626173656c696e653d276d6964646c652720746578742d616e63686f723d276d6964646c65273e",
  "linkReferences": {},
  "deployedLinkReferences": {}
}